:020000040800F2
:1000000040080020E50200084503000863050008D9
:1000100045030008450300084503000800000000F0
:100020000000000000000000000000004503000880
:1000300045030008000000004503000845030008D0
:100040004503000845030008450300084503000870
:100050004503000845030008450300084503000860
:100060004503000845030008450300084503000850
:100070004503000845030008450300084503000840
:100080004503000845030008450300084503000830
:100090004503000845030008450300084503000820
:1000A0004503000845030008450300084503000810
:1000B0004503000845030008450300084503000800
:1000C00045030008450300084503000845030008F0
:1000D00045030008450300084503000845030008E0
:1000E0004503000845030008450300080000000020
:1000F0000000000000000000000000000000000000
:1001000000000000000000005FF808F180B582B038
:1001100000AF7860144B1B785A1CD1B2124A117090
:100120001A467B68D9B2114B99540F4B1B781A466B
:100130000E4B002199540C4B1B7801330F2B05D823
:100140007B680A2B02D07B68002B0AD1064B002269
:100150001A70064B00221946042000F0F9F90346F4
:10016000002B0837BD4680BD3C0400202C04002035
:1001700080B500AF154A154B1B6843F001031360AF
:100180001249124B5A68124B13404B600F4A0F4BE7
:100190001B6823F0847323F4803313600B4A0B4BEA
:1001A0001B6823F480231360084A084B5B6823F420
:1001B000FE035360054B4FF41F029A6000F00CF8E9
:1001C000044B4FF000629A6000BF80BD00100240F7
:1001D0000000FFF800ED00E080B500AF00F002F88D
:1001E00000BF80BD80B483B000AF00237B600023DC
:1001F0003B603A4A394B1B6843F480331360374BFA
:100200001B6803F400333B607B6801337B603B6811
:10021000002B03D17B68B3F5A06FF0D12F4B1B6887
:1002200003F40033002B02D001233B6001E00023E4
:100230003B603B68012B4BD1294A294B1B6843F09B
:1002400010031360264A264B1B6823F00303136038
:10025000234A234B1B6843F0020313601F4A1F4BC2
:100260005B6853601D4A1D4B5B6853601B4A1B4B08
:100270005B6843F480635360184A184B5B6823F44F
:100280007C135360154A154B5B6843F4E8135360C5
:10029000124A124B1B6843F08073136000BF0F4B70
:1002A0001B6803F00073002BF9D00C4A0B4B5B6802
:1002B00023F003035360094A084B5B6843F00203D1
:1002C000536000BF054B5B6803F00C03082BF9D1AA
:1002D00000BF0C37BD4680BC704700BF0010024015
:1002E0000020024080B582B000AF114B7B60114B03
:1002F0003B6007E03B681A1D3A607A68111D79601F
:1003000012681A603B680C4A9342F3D30B480C49BD
:100310004FF000028842B8BF40F8042BFADBFFF729
:1003200027FF00F067F800BF0837BD4680BD00BF5B
:10033000A5050008000000202C0400202C0400204B
:100340004004002080B400AFFEE700BF80B483B05B
:1003500000AF78604FF06043D3F8803E03F00103B4
:10036000002B12D04FF06043D3F8003E03F001039E
:10037000002B0AD000BF4FF060431B68002BFAD05F
:100380004FF060437A68D2B21A707B6818460C3717
:10039000BD4680BC704700BF80B485B000AF7860B8
:1003A0000023FB6003E000BFFB680133FB607B6858
:1003B0004FF4FA6202FB03F2FB689A42F3D800BFE3
:1003C0001437BD4680BC704780B582B000AF7860FE
:1003D00007E07B681B781846FFF7B8FF7B6801339E
:1003E0007B607B681B78002BF3D100BF0837BD46CC
:1003F00080BD00BF80B500AF1C4A1C4B9B6943F019
:10040000140393611A4A1A4B1B6823F4700343F4D4
:1004100080131360174A174B5B6823F4700343F48F
:1004200080135360124B20221A61124B4FF400527A
:100430001A611148FFF7C8FF104800F033F84FF475
:10044000FA70FFF7A9FF0A4B4FF400121A61094B2B
:100450004FF000521A610A48FFF7B6FF094800F052
:1004600021F84FF4FA70FFF797FFDBE70010024026
:1004700000080140001001407805000884050008CC
:10048000900500089C05000880B582B000AF0346C7
:10049000FB71FB791846FFF739FE00BF0837BD46F0
:1004A00080BD00BF80B582B000AF7860054B1B688F
:1004B0009B681946786800F027F803461846083705
:1004C000BD4680BD2804002080B582B000AF7860B2
:1004D00039600C4B1B689A683B689A4205D0094BFF
:1004E0001B68DA683B689A4206D17B68DBB2184623
:1004F000FFF7CAFF7B6801E04FF0FF33184608376B
:10050000BD4680BD2804002080B584B000AF78606F
:1005100039600023FB6012E07B681B78396818465D
:10052000FFF7D2FF0346B3F1FF3F02D14FF0FF3395
:100530000AE0FB680133FB607B6801337B607B680A
:100540001B78002BE8D1FB6818461037BD4680BDEC
:10055000ABBE01E000207047002A00D010600120EF
:100560007047069801884BF6AB62914202D1043085
:1005700006907047FEE7000050696E204869676882
:100580000A00000050696E20486967680D0000008D
:1005900050696E204C6F770A0000000050696E2091
:0505A0004C6F770D0017
:1005A5000000000000000000010000000000000045
:1005B5000000000000000000000000000000000036
:1005C5000000000000000000000000000000000026
:1005D5000000000000000000000000000000000016
:1005E5000000000000000000000000000000000006
:0C09C50000000000000000000000002006
:0400000508000000EF
:00000001FF
